:100000000C942A000C9447000C9447000C94470071
:100010000C9447000C9447000C9447000C94470044
:100020000C9447000C9447000C949E070C94C7074F
:100030000C9447000C9456090C948B090C94B40949
:100040000C9447000C9447000C9447000C94470014
:100050000C94470011241FBECFE5D8E0DEBFCDBF12
:1000600011E0A0E6B0E0E6E5F4E102C005900D92F3
:10007000A432B107D9F721E0A4E2B1E001C01D929A
:10008000A237B207E1F70E94DD090C94220A0C9412
:10009000000080E00E947B040C941C038B508D3187
:1000A00050F4109224016650693058F480E00E94A8
:1000B00097040C942B0381E08093240166506930EF
:1000C00018F081E08093240180E00E9489040C9460
:1000D0002603809124010895CF93DF930F92CDB72B
:1000E000DEB71982BE016F5F7F4F80E090E00E9413
:1000F0003E038981282F853608F020E020932501D2
:10010000109226010F90DF91CF910895CF93DF9346
:1001100000D000D000D00F92CDB7DEB78D836E83B4
:100120004F8360912501709126016436710518F5A1
:100130006F5F80E090E00E943003809125019091F4
:1001400026019C012F5F3F4F20932501309326010C
:100150002D8129832E812A832F812B831C82049653
:1001600044E050E0BE016F5F7F4F880F991F880FFA
:10017000991F0E944B0327960FB6F894DEBF0FBE5F
:10018000CDBFDF91CF9108956115710539F02091B0
:100190002501309126018217930708F008950496EF
:1001A00044E050E0880F991F880F991F0C9470034A
:1001B000109225011092260160E080E090E00C94FE
:1001C0003003809125019091260108951092270116
:1001D0001092280108950E94B104809327012FEF07
:1001E00080E792E0215080409040E1F700C000009D
:1001F0000E946804809328010895809127019091BE
:1002000028010895EF92FF920F931F9310923E01E1
:1002100010923F011092400113E01093410110929F
:10022000420180E8382F8093430185E280934401A6
:1002300010924501109246011092470182E080938E
:100240004801E12CF12C00E020E045E250E0B7014C
:100250000E94F0071F910F91FF90EF9008950F9368
:100260001F93CF93DF9300D00F92CDB7DEB7182F37
:100270006B83498380E690E00E94D2088FE690E08D
:100280000E94D2082DEC129F012D1124069506958F
:10029000069580E3800F90E00E94B208802F880FBF
:1002A000880F800F880F181B105D812F90E00E942F
:1002B000B20887E790E00E94D2088CE790E00E94A5
:1002C000D2088B819DEC899F812D1124869586957E
:1002D00086958A83805D90E00E94B2088A81880FAB
:1002E000880F2A81820F880F9B81981B905D9A83CB
:1002F000892F90E00E94B20885E890E00E94D20821
:1003000029818AE890E0211102C087E990E00F90EE
:100310000F900F90DF91CF911F910F910C94D20805
:100320005F9B21C03CB120912901822F90E03D309C
:10033000D9F03A30C9F0233100F1865D9E4FFC01BF
:10034000108280912A0190912B0188349544E9F024
:1003500067ED70E08AE291E00E94190A892B29F189
:100360001092290108950895865D9E4FFC01108228
:100370002111E7CF109229010895865D9E4FFC015F
:1003800030832F5F20932901089580912C01909153
:100390002D018C349045E1F680912E018111D8CF4A
:1003A0008AEA90E00E94D208DBCF0E94D80081EE5A
:1003B00090E00E94D208D4CF8091550190915601CF
:1003C000A0915701B09158010196A11DB11D8093D4
:1003D000550190935601A0935701B0935801089589
:1003E00013BE83B7886083BF8CE78CBF89B78260F8
:1003F00089BF83B7816083BF83B7826083BF08955D
:1004000040E860E081E00E94CC040E94E50380E0C7
:100410000E947B040E941C030E9402010E946C0047
:100420000E94E6000E94490013BE83B7886083BF24
:100430008CE78CBF89B7826089BF83B7816083BF37
:1004400083B7826083BF6CED71E081E00E94640736
:100450000E94EA0661E081E00E94E0038FEE90E0F6
:100460000E9426042FEF84E39CE0215080409040BE
:10047000E1F700C0000061E081E00C94E0030F931D
:100480001F93CF93DF9300D0CDB7DEB78091550196
:1004900090915601A0915701B0915801409151019E
:1004A0005091520160915301709154018C019D0152
:1004B000041B150B260B370BA801B901443F514013
:1004C0006105710598F540914D0150914E01609183
:1004D0004F01709150018C019D01041B150B260BDF
:1004E000370BA801B901483E53406105710508F07A
:1004F00059C04091490150914A0160914B0170915E
:100500004C018C019D01041B150B260B370BA80118
:10051000B901483853416105710560F50F900F909E
:10052000DF91CF911F910F910C9490018093510115
:1005300090935201A0935301B09354010E94EB0099
:100540000E94FD0089839A83692F0E944E000E94B9
:100550006900098100935B011A8110935A0180930D
:1005600059018091550190915601A0915701B09188
:100570005801A9CF8093490190934A01A0934B0160
:10058000B0934C014091590160915A0180915B01F7
:100590000E9486000F900F90DF91CF911F910F91D5
:1005A0000C94900180934D0190934E01A0934F01C4
:1005B000B093500160E080E00E943E048FEF90E035
:1005C0000E94260480915B010E94450486E091E030
:1005D0000E94260460E081E00E943E048BE091E0EE
:1005E0000E94260480915A010E94450483E191E013
:1005F0000E9426046AE081E00E943E048091590135
:10060000813069F08DE191E00E94260480915501CE
:1006100090915601A0915701B09158016ACF87E19E
:1006200091E00E9426048091550190915601A0917D
:100630005701B09158015DCF41E061E081E00E9437
:10064000260540E061E081E00C94880541E061E02E
:1006500081E00C94880540E061E081E00C9488051D
:100660009370E199FECF9FBB8EBB6DBB9FB78FB7D9
:100670008F778FBFE29AE19A9FBF08956115710548
:1006800049F09370E199FECF9FBB8EBBE09A8DB38A
:10069000FB0180830895EF92FF920F931F93CF93F6
:1006A000DF9361157105A9F04115510591F07B01AA
:1006B000E40EF51EEB018C0101501109061B170B0E
:1006C0006991C8018C0F9D1F0E943003CE15DF0574
:1006D000B9F7DF91CF911F910F91FF90EF9008959F
:1006E0009C0161157105C1F041155105A9F0FB018F
:1006F000460F571F309751F0E199FECF832F90E0BE
:1007000083708FBB2EBBE09A8DB3808331962F5FB1
:100710003F4FE417F50771F70895CF93DF930F92DA
:10072000CDB7DEB7898341E060E080E00E948805B4
:1007300040E061E080E00E948805698182E00E94DB
:100740003F0641E062E080E00E9488058FEC97E080
:100750000197F1F700C0000040E062E080E00F90F8
:10076000DF91CF910C948805CF93DF930F92CDB793
:10077000DEB7898340E060E080E00E94880540E0C9
:1007800061E080E00E948805698182E00E943F0666
:1007900041E062E080E00E9488058FEC97E00197DD
:1007A000F1F700C0000040E062E080E00F90DF91D0
:1007B000CF910C948805613009F008950C948D0355
:1007C000613009F008950C94B40341E060E080E0EA
:1007D0000E94260541E061E080E00E94260541E09C
:1007E00062E080E00E9426056FEF82E00E942F0603
:1007F0002FEB8AED90E0215080409040E1F700C05F
:10080000000088E30E94B4038FEC97E00197F1F7B2
:1008100000C000008EE00E94B4038FEC97E00197C7
:10082000F1F700C0000081E00E94B4038FE99FE06F
:100830000197F1F700C0000086E00E94B4038FEC3E
:1008400097E00197F1F700C0000008950F931F9300
:10085000CF938C01009771F0FC018081811551F0DC
:10086000C0E00E948D03CF5FF801EC0FF11D808185
:100870008111F7CFCF911F910F910895813009F425
:10088000605C862F80680C94B403CF939DEC899FA5
:10089000912D1124969596959695C92FCC0FCC0F36
:1008A000C90FCC0F282F2C1BC22F8A3028F480E3CD
:1008B0008C0FCF910C948D0380E3890F0E948D03E0
:1008C00080E38C0FCF910C948D0386E00C940E0581
:1008D00086E00E940E059C01A4E6B0E00E94E209B9
:1008E000A92F982F872FA69597958795A6959795C9
:1008F000879590E00895813038F009F0089541E03F
:1009000065E083E00C94260541E064E083E00C940C
:100910002605813038F009F0089541E065E083E074
:100920000C94880541E064E083E00C9488058130F4
:1009300038F009F0089540E065E083E00C94880504
:1009400040E064E083E00C948805813030F009F0E9
:10095000089565E083E00C94030664E083E00C9462
:10096000030685E00E940E059C01A8E8B3E10E9401
:10097000E209672F782F892F90E086957795679504
:100980008695779567952AE030E040E050E00E9438
:10099000F109822F90E008958130B8F43F983E9895
:1009A0006130D0F43D984230D9F04430F1F0483015
:1009B00041F1403111F1403249F1403459F14038B0
:1009C000B9F4329A319A309A13C0A1F0823041F7CB
:1009D0003F9A3E9A613030F331F73D9A423029F721
:1009E000329831983098379A08953298319A3098E1
:1009F000379A08953F983E9AD3CF329A31983098DB
:100A0000F7CF3298319A309A379A0895329A3198BE
:100A1000309AEECF329A319A3098EACF682F6770C9
:100A200087B1807E87B98FEC97E00197F1F700C01E
:100A3000000087B1862B87B940E080E00E94260540
:100A4000369A86B184B195B1349A08954130F9F05F
:100A5000E8F4823009F446C068F4811509F44CC00A
:100A600027B381E001C0880F6A95EAF78095822359
:100A700087BB0895833009F04AC021B381E001C0EB
:100A8000880F6A95EAF78095822381BB08958230AA
:100A9000B9F058F48115E9F087B321E001C0220FC5
:100AA0006A95EAF7822B87BB0895833079F581B385
:100AB00021E001C0220F6A95EAF7822B81BB0895DD
:100AC00084B321E001C0220F6A95EAF7822B84BB30
:100AD00008958AB321E001C0220F6A95EAF7822BBC
:100AE0008ABB089524B381E001C0880F6A95EAF7B4
:100AF0008095822384BB08952AB381E001C0880FCA
:100B00006A95EAF7809582238ABB0895089508952F
:100B10004130F9F0E8F4823009F446C068F48115F8
:100B200009F44CC028B381E001C0880F6A95EAF748
:100B30008095822388BB0895833009F04AC022B390
:100B400081E001C0880F6A95EAF78095822382BB15
:100B500008958230B9F058F48115E9F088B321E0A6
:100B600001C0220F6A95EAF7822B88BB0895833073
:100B700079F582B321E001C0220F6A95EAF7822B52
:100B800082BB089585B321E001C0220F6A95EAF780
:100B9000822B85BB08958BB321E001C0220F6A959B
:100BA000EAF7822B8BBB089525B381E001C0880F43
:100BB0006A95EAF78095822385BB08952BB381E07F
:100BC00001C0880F6A95EAF7809582238BBB089550
:100BD00008950895823091F068F4811589F086B304
:100BE00090E002C0959587956A95E2F78170FA01C9
:100BF00080830895833031F480B3F2CF83B3F0CF94
:100C000089B3EECF08958230B9F058F48115E9F038
:100C100088B321E001C0220F6A95EAF7822788BBDA
:100C200008958330D9F482B321E001C0220F6A9580
:100C3000EAF7822782BB089585B321E001C0220F25
:100C40006A95EAF7822785BB08958BB321E001C03E
:100C5000220F6A95EAF782278BBB089508958230A8
:100C600049F020F4811541F067BB0895833031F4D9
:100C700061BB089564BB08956ABB089508958230EE
:100C800049F020F4811541F068BB0895833031F4B8
:100C900062BB089565BB08956BBB089508958230CB
:100CA00069F030F4811571F086B3FB0180830895FB
:100CB000833061F480B3FB018083089583B3FB012B
:100CC0008083089589B3FB0180830895089583305C
:100CD000B1F0843019F0853009F10895643069F17C
:100CE000653009F443C0663009F447C06730A9F79E
:100CF00085B7846085BF85B7886085BF08956430F7
:100D000019F1653099F0663031F1673031F785B708
:100D1000816085BF85B7826085BF0895663011F117
:100D20006730D9F684B7806484BF089585B7816041
:100D300085BF85B78D7F85BF089585B78B7F85BFBC
:100D400085B7877F85BF089585B78E7F85BF85B7B7
:100D50008D7F85BF089585B78E7F85BF85B78260FB
:100D600085BF089584B78F7B84BF089585B784605D
:100D700085BF85B7877F85BF089585B78B7F85BF82
:100D800085B7886085BF0895833049F0843019F0B5
:100D9000853049F008958BB780688BBF08958BB775
:100DA00080648BBF08958BB780628BBF08958330BA
:100DB00049F0843019F0853049F008958BB78F776A
:100DC0008BBF08958BB78F7B8BBF08958BB78F7DBB
:100DD0008BBF08958FB780688FBF08958FB78F77C7
:100DE0008FBF0895CF93DF9300D000D00F92CDB77F
:100DF000DEB749835A836B83272F7C838D8313BE91
:100E0000413098F483B78F7B83BF83B7877F83BFDD
:100E10008A8182BF89B7816089BF0F900F900F9040
:100E20000F900F90DF91CF910895B9F0423041F1CA
:100E3000433099F783B7806483BF83B7877F83BFCD
:100E4000743031F1253071F11CBE0F900F900F906E
:100E50000F900F90DF91CF91089583B78F7B83BF61
:100E600083B7886083BF8B818CBF89B7826089BF5D
:100E70000F900F900F900F900F90DF91CF910895EA
:100E800083B7806483BF83B7886083BF7430D1F633
:100E900083B78F7E83BF83B7806283BF2093600157
:100EA0001CBED3CF83B78061F5CF811521F093B7F6
:100EB000987F892B83BF089583B7887F83BF089568
:100EC00082BF08958CBF0895813040F4611571058B
:100ED00031F060935E0170935F01089509F0089509
:100EE00061157105E1F360935C0170935D010895F4
:100EF000853640F490916001943029F020E09530DF
:100F000079F02CBF0895282F30E0AFEFB0E00E94B9
:100F1000E20924E640E050E00E94F1092CBF089568
:100F2000282F30E0AFEFB0E00E94E20924E640E075
:100F300050E00E94F10920952CBF08951F920F9256
:100F40000FB60F9211242F933F934F935F936F939C
:100F50007F938F939F93AF93BF93EF93FF93E09112
:100F60005C01F0915D01309709F00995FF91EF91D7
:100F7000BF91AF919F918F917F916F915F914F91B1
:100F80003F912F910F900FBE0F901F9018951F92B9
:100F90000F920FB60F9211242F933F934F935F93AD
:100FA0006F937F938F939F93AF93BF93EF93FF9331
:100FB000E0915E01F0915F01309709F00995FF9192
:100FC000EF91BF91AF919F918F917F916F915F91C1
:100FD0004F913F912F910F900FBE0F901F9018953A
:100FE000EF92FF920F931F93CF93DF93CDB7DEB7AE
:100FF0002B970FB6F894DEBF0FBECDBFBE2DE98292
:10100000AF2DFA82E02F0B83912F1C83F22F2D83BB
:101010003E834F8358876987072F7A87182F8B87DE
:101020004E815F8168857985E0926101F09262016D
:10103000E0936301909364012093650140936601FE
:1010400050936701609368017093690100936A018E
:1010500080936B0180ECB13009F080E8E13009F455
:1010600077C0E23009F45BC0A13009F45CC099306C
:1010700008F04AC05298990F892B80BDF13008F0D2
:101080003FC05998440F551F661F771F440F551FC7
:10109000661F771F9A01AB01220F331F441F551F94
:1010A000220F331F441F551F60E072E18AE790E072
:1010B0000E94F10921503109922F832F99B980BDE7
:1010C0005798569855980150073048F4E02FF0E0B3
:1010D000EC5DF54F0C94130A569A579A559A1130B5
:1010E000C0F4549A53982B960FB6F894DEBF0FBEF7
:1010F000CDBFDF91CF911F910F91FF90EF90089599
:10110000A1F080E090E0DACF09F0B7CF8660529A84
:10111000B4CF01F1123039F7549A539AE4CF806377
:10112000A13009F0A4CF8860A2CF599A9A01AB01EF
:10113000220F331F441F551F220F331F441F551FFB
:10114000220F331F441F551FAFCF579A569AC7CF50
:1011500080628ACF539A5498C6CF569A559ABFCF79
:10116000579ABDCF9C018BB180916401893011F0F9
:101170002CB90895509830FFFBCF509A2CB90895A0
:101180008BB180916401893029F080E090E02CB12E
:10119000822B0895882751998395880F990B2CB13C
:1011A000822B0895DC01892B91F09C91911579F0A7
:1011B00020E0809164013BB1893009F450989CB9DA
:1011C0002F5FFD01E20FF11D90819111F4CF089581
:1011D000DC01892BF9F08BB18091640120E089302A
:1011E000D1F04CB1242B2C936217F9F090E09F5F63
:1011F0002BB120E0893029F4222751992395220F21
:10120000330B4CB1FD01E90FF11D242B2083621338
:10121000EECF10820895222751992395220F331F74
:101220004CB1242B2C936213E1CFFD011082089561
:10123000009789F06115710571F0FC01680F791F45
:101240009091640181912BB1993009F450988CB937
:10125000E617F707B9F70895549A0895539A089531
:1012600054980895539808950895579A0895569A52
:101270000895559A08955798089556980895559841
:101280000895009721F08093700190937101089563
:10129000009721F080936E0190936F01089500975D
:1012A00021F080936C0190936D0108951F920F922D
:1012B0000FB60F9211242F933F934F935F936F9329
:1012C0007F938F939F93AF93BF93EF93FF93E0919F
:1012D0007001F0917101309741F08091640190E0CC
:1012E0008730A1F02CB1822F0995FF91EF91BF912A
:1012F000AF919F918F917F916F915F914F913F91AE
:101300002F910F900FBE0F901F901895882751991D
:101310008395982FE7CF1F920F920FB60F9211244B
:101320002F933F934F935F936F937F938F939F93ED
:10133000AF93BF93EF93FF93E0916C01F0916D0138
:10134000309709F00995FF91EF91BF91AF919F916F
:101350008F917F916F915F914F913F912F910F905E
:101360000FBE0F901F9018951F920F920FB60F92FD
:1013700011242F933F934F935F936F937F938F939A
:101380009F93AF93BF93EF93FF93E0916E01F09122
:101390006F01309709F00995FF91EF91BF91AF91DF
:1013A0009F918F917F916F915F914F913F912F917D
:1013B0000F900FBE0F901F9018950E9400020E9480
:1013C0003F02FDCFA29FB001B39FC001A39F700D4C
:1013D000811D1124911DB29F700D811D1124911D3D
:1013E0000895A1E21A2EAA1BBB1BFD010DC0AA1F66
:1013F000BB1FEE1FFF1FA217B307E407F50720F07E
:10140000A21BB30BE40BF50B661F771F881F991FF8
:101410001A9469F760957095809590959B01AC0141
:10142000BD01CF010895EE0FFF1F0590F491E02D4F
:101430000994FB01DC018D91019080190110D9F311
:10144000990B0895F894FFCFB008A6086E08A50878
:061450006D08AD086C08F8
:1014560043757272656E7420446174610D0A00549E
:10146600656D70203D200020430D0A004C696768B9
:1014760074203D200020250D0A00416C61726D200C
:101486003D204F4E0D0A00416C61726D203D204F8C
:1014960046460D0A0048454C500048454C500D0A3A
:1014A6005354415455530D0A43555252454E540D0B
:1014B6000A52454144204C4F470D0A434C45415280
:1014C600204C4F470D0A00434C454152204C4F4794
:1014D600004C4F4720434C45415245440D0A0057A6
:1014E6006561746865722053746174696F6E005427
:1014F600656D703A200020432020004C69676874AF
:101506003A200025202000414C41524D004F4B20EF
:041516002020000091
:00000001FF
